{
  "_format": "hh-sol-artifact-1",
  "contractName": "NFTMarkitplace",
  "sourceName": "contracts/NFTMarkitplace.sol",
  "abi": [
    {
      "inputs": [],
      "stateMutability": "nonpayable",
      "type": "constructor"
    },
    {
      "anonymous": false,
      "inputs": [
        {
          "indexed": true,
          "internalType": "address",
          "name": "owner",
          "type": "address"
        },
        {
          "indexed": true,
          "internalType": "address",
          "name": "approved",
          "type": "address"
        },
        {
          "indexed": true,
          "internalType": "uint256",
          "name": "tokenId",
          "type": "uint256"
        }
      ],
      "name": "Approval",
      "type": "event"
    },
    {
      "anonymous": false,
      "inputs": [
        {
          "indexed": true,
          "internalType": "address",
          "name": "owner",
          "type": "address"
        },
        {
          "indexed": true,
          "internalType": "address",
          "name": "operator",
          "type": "address"
        },
        {
          "indexed": false,
          "internalType": "bool",
          "name": "approved",
          "type": "bool"
        }
      ],
      "name": "ApprovalForAll",
      "type": "event"
    },
    {
      "anonymous": false,
      "inputs": [
        {
          "indexed": true,
          "internalType": "uint256",
          "name": "tokenId",
          "type": "uint256"
        },
        {
          "indexed": true,
          "internalType": "address",
          "name": "buyer",
          "type": "address"
        },
        {
          "indexed": false,
          "internalType": "uint256",
          "name": "amount",
          "type": "uint256"
        }
      ],
      "name": "NftSold",
      "type": "event"
    },
    {
      "anonymous": false,
      "inputs": [
        {
          "indexed": true,
          "internalType": "address",
          "name": "from",
          "type": "address"
        },
        {
          "indexed": true,
          "internalType": "address",
          "name": "to",
          "type": "address"
        },
        {
          "indexed": true,
          "internalType": "uint256",
          "name": "tokenId",
          "type": "uint256"
        }
      ],
      "name": "Transfer",
      "type": "event"
    },
    {
      "anonymous": false,
      "inputs": [
        {
          "indexed": true,
          "internalType": "uint256",
          "name": "tokenId",
          "type": "uint256"
        },
        {
          "indexed": false,
          "internalType": "address",
          "name": "seller",
          "type": "address"
        },
        {
          "indexed": false,
          "internalType": "address",
          "name": "owner",
          "type": "address"
        },
        {
          "indexed": false,
          "internalType": "uint256",
          "name": "price",
          "type": "uint256"
        },
        {
          "indexed": false,
          "internalType": "bool",
          "name": "sold",
          "type": "bool"
        }
      ],
      "name": "isMarkitItemCreated",
      "type": "event"
    },
    {
      "inputs": [
        {
          "internalType": "address",
          "name": "to",
          "type": "address"
        },
        {
          "internalType": "uint256",
          "name": "tokenId",
          "type": "uint256"
        }
      ],
      "name": "approve",
      "outputs": [],
      "stateMutability": "nonpayable",
      "type": "function"
    },
    {
      "inputs": [
        {
          "internalType": "address",
          "name": "owner",
          "type": "address"
        }
      ],
      "name": "balanceOf",
      "outputs": [
        {
          "internalType": "uint256",
          "name": "",
          "type": "uint256"
        }
      ],
      "stateMutability": "view",
      "type": "function"
    },
    {
      "inputs": [
        {
          "internalType": "uint256",
          "name": "tokenId",
          "type": "uint256"
        }
      ],
      "name": "buyNftByBidding",
      "outputs": [],
      "stateMutability": "payable",
      "type": "function"
    },
    {
      "inputs": [
        {
          "internalType": "uint256",
          "name": "tokenId",
          "type": "uint256"
        }
      ],
      "name": "createMarkitSale",
      "outputs": [],
      "stateMutability": "payable",
      "type": "function"
    },
    {
      "inputs": [
        {
          "internalType": "string",
          "name": "tokenURI",
          "type": "string"
        },
        {
          "internalType": "uint256",
          "name": "price",
          "type": "uint256"
        }
      ],
      "name": "createToken",
      "outputs": [
        {
          "internalType": "uint256",
          "name": "",
          "type": "uint256"
        }
      ],
      "stateMutability": "payable",
      "type": "function"
    },
    {
      "inputs": [],
      "name": "fetchItemsListed",
      "outputs": [
        {
          "components": [
            {
              "internalType": "uint256",
              "name": "tokenId",
              "type": "uint256"
            },
            {
              "internalType": "address",
              "name": "seller",
              "type": "address"
            },
            {
              "internalType": "address",
              "name": "owner",
              "type": "address"
            },
            {
              "internalType": "uint256",
              "name": "price",
              "type": "uint256"
            },
            {
              "internalType": "bool",
              "name": "sold",
              "type": "bool"
            }
          ],
          "internalType": "struct NFTMarkitplace.MarketItemInfo[]",
          "name": "",
          "type": "tuple[]"
        }
      ],
      "stateMutability": "view",
      "type": "function"
    },
    {
      "inputs": [],
      "name": "fetchMarkitItem",
      "outputs": [
        {
          "components": [
            {
              "internalType": "uint256",
              "name": "tokenId",
              "type": "uint256"
            },
            {
              "internalType": "address",
              "name": "seller",
              "type": "address"
            },
            {
              "internalType": "address",
              "name": "owner",
              "type": "address"
            },
            {
              "internalType": "uint256",
              "name": "price",
              "type": "uint256"
            },
            {
              "internalType": "bool",
              "name": "sold",
              "type": "bool"
            }
          ],
          "internalType": "struct NFTMarkitplace.MarketItemInfo[]",
          "name": "",
          "type": "tuple[]"
        }
      ],
      "stateMutability": "view",
      "type": "function"
    },
    {
      "inputs": [],
      "name": "fetchMyNFT",
      "outputs": [
        {
          "components": [
            {
              "internalType": "uint256",
              "name": "tokenId",
              "type": "uint256"
            },
            {
              "internalType": "address",
              "name": "seller",
              "type": "address"
            },
            {
              "internalType": "address",
              "name": "owner",
              "type": "address"
            },
            {
              "internalType": "uint256",
              "name": "price",
              "type": "uint256"
            },
            {
              "internalType": "bool",
              "name": "sold",
              "type": "bool"
            }
          ],
          "internalType": "struct NFTMarkitplace.MarketItemInfo[]",
          "name": "",
          "type": "tuple[]"
        }
      ],
      "stateMutability": "view",
      "type": "function"
    },
    {
      "inputs": [
        {
          "internalType": "uint256",
          "name": "tokenId",
          "type": "uint256"
        }
      ],
      "name": "finalizeBidding",
      "outputs": [],
      "stateMutability": "nonpayable",
      "type": "function"
    },
    {
      "inputs": [
        {
          "internalType": "uint256",
          "name": "tokenId",
          "type": "uint256"
        }
      ],
      "name": "getApproved",
      "outputs": [
        {
          "internalType": "address",
          "name": "",
          "type": "address"
        }
      ],
      "stateMutability": "view",
      "type": "function"
    },
    {
      "inputs": [],
      "name": "getListingPrice",
      "outputs": [
        {
          "internalType": "uint256",
          "name": "",
          "type": "uint256"
        }
      ],
      "stateMutability": "view",
      "type": "function"
    },
    {
      "inputs": [
        {
          "internalType": "address",
          "name": "owner",
          "type": "address"
        },
        {
          "internalType": "address",
          "name": "operator",
          "type": "address"
        }
      ],
      "name": "isApprovedForAll",
      "outputs": [
        {
          "internalType": "bool",
          "name": "",
          "type": "bool"
        }
      ],
      "stateMutability": "view",
      "type": "function"
    },
    {
      "inputs": [],
      "name": "name",
      "outputs": [
        {
          "internalType": "string",
          "name": "",
          "type": "string"
        }
      ],
      "stateMutability": "view",
      "type": "function"
    },
    {
      "inputs": [
        {
          "internalType": "uint256",
          "name": "tokenId",
          "type": "uint256"
        }
      ],
      "name": "ownerOf",
      "outputs": [
        {
          "internalType": "address",
          "name": "",
          "type": "address"
        }
      ],
      "stateMutability": "view",
      "type": "function"
    },
    {
      "inputs": [
        {
          "internalType": "uint256",
          "name": "tokenId",
          "type": "uint256"
        },
        {
          "internalType": "uint256",
          "name": "price",
          "type": "uint256"
        },
        {
          "internalType": "uint256",
          "name": "biddingDuration",
          "type": "uint256"
        }
      ],
      "name": "reSellNftByBidding",
      "outputs": [],
      "stateMutability": "payable",
      "type": "function"
    },
    {
      "inputs": [
        {
          "internalType": "uint256",
          "name": "tokenId",
          "type": "uint256"
        },
        {
          "internalType": "uint256",
          "name": "price",
          "type": "uint256"
        }
      ],
      "name": "reSellToken",
      "outputs": [],
      "stateMutability": "payable",
      "type": "function"
    },
    {
      "inputs": [
        {
          "internalType": "uint256",
          "name": "tokenId",
          "type": "uint256"
        }
      ],
      "name": "refundBid",
      "outputs": [],
      "stateMutability": "nonpayable",
      "type": "function"
    },
    {
      "inputs": [
        {
          "internalType": "address",
          "name": "from",
          "type": "address"
        },
        {
          "internalType": "address",
          "name": "to",
          "type": "address"
        },
        {
          "internalType": "uint256",
          "name": "tokenId",
          "type": "uint256"
        }
      ],
      "name": "safeTransferFrom",
      "outputs": [],
      "stateMutability": "nonpayable",
      "type": "function"
    },
    {
      "inputs": [
        {
          "internalType": "address",
          "name": "from",
          "type": "address"
        },
        {
          "internalType": "address",
          "name": "to",
          "type": "address"
        },
        {
          "internalType": "uint256",
          "name": "tokenId",
          "type": "uint256"
        },
        {
          "internalType": "bytes",
          "name": "data",
          "type": "bytes"
        }
      ],
      "name": "safeTransferFrom",
      "outputs": [],
      "stateMutability": "nonpayable",
      "type": "function"
    },
    {
      "inputs": [
        {
          "internalType": "string",
          "name": "tokenURI",
          "type": "string"
        },
        {
          "internalType": "uint256",
          "name": "initialPrice",
          "type": "uint256"
        },
        {
          "internalType": "uint256",
          "name": "biddingDuration",
          "type": "uint256"
        }
      ],
      "name": "sellNftByBidding",
      "outputs": [],
      "stateMutability": "payable",
      "type": "function"
    },
    {
      "inputs": [
        {
          "internalType": "address",
          "name": "operator",
          "type": "address"
        },
        {
          "internalType": "bool",
          "name": "approved",
          "type": "bool"
        }
      ],
      "name": "setApprovalForAll",
      "outputs": [],
      "stateMutability": "nonpayable",
      "type": "function"
    },
    {
      "inputs": [
        {
          "internalType": "bytes4",
          "name": "interfaceId",
          "type": "bytes4"
        }
      ],
      "name": "supportsInterface",
      "outputs": [
        {
          "internalType": "bool",
          "name": "",
          "type": "bool"
        }
      ],
      "stateMutability": "view",
      "type": "function"
    },
    {
      "inputs": [],
      "name": "symbol",
      "outputs": [
        {
          "internalType": "string",
          "name": "",
          "type": "string"
        }
      ],
      "stateMutability": "view",
      "type": "function"
    },
    {
      "inputs": [
        {
          "internalType": "uint256",
          "name": "tokenId",
          "type": "uint256"
        }
      ],
      "name": "tokenURI",
      "outputs": [
        {
          "internalType": "string",
          "name": "",
          "type": "string"
        }
      ],
      "stateMutability": "view",
      "type": "function"
    },
    {
      "inputs": [
        {
          "internalType": "address",
          "name": "from",
          "type": "address"
        },
        {
          "internalType": "address",
          "name": "to",
          "type": "address"
        },
        {
          "internalType": "uint256",
          "name": "tokenId",
          "type": "uint256"
        }
      ],
      "name": "transferFrom",
      "outputs": [],
      "stateMutability": "nonpayable",
      "type": "function"
    },
    {
      "inputs": [
        {
          "internalType": "uint256",
          "name": "_listingprice",
          "type": "uint256"
        }
      ],
      "name": "updateListingPrice",
      "outputs": [],
      "stateMutability": "payable",
      "type": "function"
    }
  ],
  "bytecode": "0x60806040526103e86009553480156200001757600080fd5b506040518060400160405280601381526020017f4e4654204d657461766572736520546f6b656e000000000000000000000000008152506040518060400160405280600581526020017f4d594e465400000000000000000000000000000000000000000000000000000081525081600090816200009591906200036b565b508060019081620000a791906200036b565b50505033600a60006101000a81548173ffffffffffffffffffffffffffffffffffffffff021916908373ffffffffffffffffffffffffffffffffffffffff16021790555062000452565b600081519050919050565b7f4e487b7100000000000000000000000000000000000000000000000000000000600052604160045260246000fd5b7f4e487b7100000000000000000000000000000000000000000000000000000000600052602260045260246000fd5b600060028204905060018216806200017357607f821691505b6020821081036200018957620001886200012b565b5b50919050565b60008190508160005260206000209050919050565b60006020601f8301049050919050565b600082821b905092915050565b600060088302620001f37fffffffffffffffffffffffffffffffffffffffffffffffffffffffffffffffff82620001b4565b620001ff8683620001b4565b95508019841693508086168417925050509392505050565b6000819050919050565b6000819050919050565b60006200024c62000246620002408462000217565b62000221565b62000217565b9050919050565b6000819050919050565b62000268836200022b565b62000280620002778262000253565b848454620001c1565b825550505050565b600090565b6200029762000288565b620002a48184846200025d565b505050565b5b81811015620002cc57620002c06000826200028d565b600181019050620002aa565b5050565b601f8211156200031b57620002e5816200018f565b620002f084620001a4565b8101602085101562000300578190505b620003186200030f85620001a4565b830182620002a9565b50505b505050565b600082821c905092915050565b6000620003406000198460080262000320565b1980831691505092915050565b60006200035b83836200032d565b9150826002028217905092915050565b6200037682620000f1565b67ffffffffffffffff811115620003925762000391620000fc565b5b6200039e82546200015a565b620003ab828285620002d0565b600060209050601f831160018114620003e35760008415620003ce578287015190505b620003da85826200034d565b8655506200044a565b601f198416620003f3866200018f565b60005b828110156200041d57848901518255600182019150602085019450602081019050620003f6565b868310156200043d578489015162000439601f8916826200032d565b8355505b6001600288020188555050505b505050505050565b6155d180620004626000396000f3fe6080604052600436106101815760003560e01c806370a08231116100d1578063a22cb4651161008a578063c18763f711610064578063c18763f71461052c578063c87b56dd14610557578063e985e9c514610594578063ff72880d146105d157610181565b8063a22cb465146104be578063ae677aa3146104e7578063b88d4fde1461050357610181565b806370a08231146103d257806372b3b6201461040f57806374f32ced1461043f57806385535b251461045b5780638c8e192e1461047757806395d89b411461049357610181565b8063214969601161013e57806342842e0e1161011857806342842e0e1461032557806345f8fa801461034e578063470e43f2146103795780636352211e1461039557610181565b806321496960146102a857806323b872dd146102d357806326d29ce0146102fc57610181565b806301ffc9a71461018657806306fdde03146101c3578063081812fc146101ee578063095ea7b31461022b57806311a5d1941461025457806312e855851461027d575b600080fd5b34801561019257600080fd5b506101ad60048036038101906101a89190613821565b6105ed565b6040516101ba9190613869565b60405180910390f35b3480156101cf57600080fd5b506101d86106cf565b6040516101e59190613914565b60405180910390f35b3480156101fa57600080fd5b506102156004803603810190610210919061396c565b610761565b60405161022291906139da565b60405180910390f35b34801561023757600080fd5b50610252600480360381019061024d9190613a21565b6107a7565b005b34801561026057600080fd5b5061027b6004803603810190610276919061396c565b6108be565b005b34801561028957600080fd5b50610292610b89565b60405161029f9190613a70565b60405180910390f35b3480156102b457600080fd5b506102bd610b93565b6040516102ca9190613bcf565b60405180910390f35b3480156102df57600080fd5b506102fa60048036038101906102f59190613bf1565b610dca565b005b34801561030857600080fd5b50610323600480360381019061031e919061396c565b610e2a565b005b34801561033157600080fd5b5061034c60048036038101906103479190613bf1565b611184565b005b34801561035a57600080fd5b506103636111a4565b6040516103709190613bcf565b60405180910390f35b610393600480360381019061038e919061396c565b61145f565b005b3480156103a157600080fd5b506103bc60048036038101906103b7919061396c565b611812565b6040516103c991906139da565b60405180910390f35b3480156103de57600080fd5b506103f960048036038101906103f49190613c44565b6118c3565b6040516104069190613a70565b60405180910390f35b61042960048036038101906104249190613da6565b61197a565b6040516104369190613a70565b60405180910390f35b61045960048036038101906104549190613e02565b6119bc565b005b61047560048036038101906104709190613e71565b611c2d565b005b610491600480360381019061048c919061396c565b611e22565b005b34801561049f57600080fd5b506104a8612004565b6040516104b59190613914565b60405180910390f35b3480156104ca57600080fd5b506104e560048036038101906104e09190613edd565b612096565b005b61050160048036038101906104fc919061396c565b6120ac565b005b34801561050f57600080fd5b5061052a60048036038101906105259190613fbe565b612146565b005b34801561053857600080fd5b506105416121a8565b60405161054e9190613bcf565b60405180910390f35b34801561056357600080fd5b5061057e6004803603810190610579919061396c565b612463565b60405161058b9190613914565b60405180910390f35b3480156105a057600080fd5b506105bb60048036038101906105b69190614041565b612575565b6040516105c89190613869565b60405180910390f35b6105eb60048036038101906105e69190614081565b612609565b005b60007f80ac58cd000000000000000000000000000000000000000000000000000000007bffffffffffffffffffffffffffffffffffffffffffffffffffffffff1916827bffffffffffffffffffffffffffffffffffffffffffffffffffffffff191614806106b857507f5b5e139f000000000000000000000000000000000000000000000000000000007bffffffffffffffffffffffffffffffffffffffffffffffffffffffff1916827bffffffffffffffffffffffffffffffffffffffffffffffffffffffff1916145b806106c857506106c782612876565b5b9050919050565b6060600080546106de90614103565b80601f016020809104026020016040519081016040528092919081815260200182805461070a90614103565b80156107575780601f1061072c57610100808354040283529160200191610757565b820191906000526020600020905b81548152906001019060200180831161073a57829003601f168201915b5050505050905090565b600061076c826128e0565b6004600083815260200190815260200160002060009054906101000a900473ffffffffffffffffffffffffffffffffffffffff169050919050565b60006107b282611812565b90508073ffffffffffffffffffffffffffffffffffffffff168373ffffffffffffffffffffffffffffffffffffffff1603610822576040517f08c379a0000000000000000000000000000000000000000000000000000000008152600401610819906141a6565b60405180910390fd5b8073ffffffffffffffffffffffffffffffffffffffff1661084161292b565b73ffffffffffffffffffffffffffffffffffffffff161480610870575061086f8161086a61292b565b612575565b5b6108af576040517f08c379a00000000000000000000000000000000000000000000000000000000081526004016108a690614238565b60405180910390fd5b6108b98383612933565b505050565b6000600c60008381526020019081526020016000209050806006015481600501546108e99190614287565b42101561092b576040517f08c379a000000000000000000000000000000000000000000000000000000000815260040161092290614307565b60405180910390fd5b6000806000905060005b600b80549050811015610a1a576000600b828154811061095857610957614327565b5b9060005260206000200160009054906101000a900473ffffffffffffffffffffffffffffffffffffffff16905060008560070160008373ffffffffffffffffffffffffffffffffffffffff1673ffffffffffffffffffffffffffffffffffffffff16815260200190815260200160002090508381600101541115610a0557806001015493508060000160009054906101000a900473ffffffffffffffffffffffffffffffffffffffff1694505b50508080610a1290614356565b915050610935565b5060008111610a5e576040517f08c379a0000000000000000000000000000000000000000000000000000000008152600401610a55906143ea565b60405180910390fd5b610a693083866129ec565b818360020160006101000a81548173ffffffffffffffffffffffffffffffffffffffff021916908373ffffffffffffffffffffffffffffffffffffffff16021790555060018360040160006101000a81548160ff0219169083151502179055508260010160009054906101000a900473ffffffffffffffffffffffffffffffffffffffff1673ffffffffffffffffffffffffffffffffffffffff166108fc829081150290604051600060405180830381858888f19350505050158015610b33573d6000803e3d6000fd5b508173ffffffffffffffffffffffffffffffffffffffff16847f410787feaee69e25111c916ccc79ee0fb3dd27b169bcb00209efdd59c5148f3683604051610b7b9190613a70565b60405180910390a350505050565b6000600954905090565b60606000610ba16007612c52565b90506000610baf6008612c52565b610bb96007612c52565b610bc3919061440a565b90506000808267ffffffffffffffff811115610be257610be1613c7b565b5b604051908082528060200260200182016040528015610c1b57816020015b610c08613758565b815260200190600190039081610c005790505b50905060005b84811015610dbf573073ffffffffffffffffffffffffffffffffffffffff16600c6000600184610c519190614287565b815260200190815260200160002060020160009054906101000a900473ffffffffffffffffffffffffffffffffffffffff1673ffffffffffffffffffffffffffffffffffffffff1603610dac576000600182610cad9190614287565b90506000600c600083815260200190815260200160002090506040518060a00160405280826000015481526020018260010160009054906101000a900473ffffffffffffffffffffffffffffffffffffffff1673ffffffffffffffffffffffffffffffffffffffff1681526020018260020160009054906101000a900473ffffffffffffffffffffffffffffffffffffffff1673ffffffffffffffffffffffffffffffffffffffff168152602001826003015481526020018260040160009054906101000a900460ff161515815250848681518110610d8f57610d8e614327565b5b6020026020010181905250600185610da79190614287565b945050505b8080610db790614356565b915050610c21565b508094505050505090565b610ddb610dd561292b565b82612c60565b610e1a576040517f08c379a0000000000000000000000000000000000000000000000000000000008152600401610e11906144b0565b60405180910390fd5b610e258383836129ec565b505050565b6000600c6000838152602001908152602001600020905080600601548160050154610e559190614287565b421015610e97576040517f08c379a0000000000000000000000000000000000000000000000000000000008152600401610e8e90614307565b60405180910390fd5b8060040160019054906101000a900460ff1615610ee9576040517f08c379a0000000000000000000000000000000000000000000000000000000008152600401610ee090614542565b60405180910390fd5b60008060005b600b80549050811015610fb0576000600b8281548110610f1257610f11614327565b5b9060005260206000200160009054906101000a900473ffffffffffffffffffffffffffffffffffffffff16905060008560070160008373ffffffffffffffffffffffffffffffffffffffff1673ffffffffffffffffffffffffffffffffffffffff16815260200190815260200160002090508381600101541115610f9b57806001015493508194505b50508080610fa890614356565b915050610eef565b5060005b600b80549050811015611160576000600b8281548110610fd757610fd6614327565b5b9060005260206000200160009054906101000a900473ffffffffffffffffffffffffffffffffffffffff1690508373ffffffffffffffffffffffffffffffffffffffff168173ffffffffffffffffffffffffffffffffffffffff161461114c5760008560070160008373ffffffffffffffffffffffffffffffffffffffff1673ffffffffffffffffffffffffffffffffffffffff16815260200190815260200160002090506000816001015490506000811115611149578660070160008473ffffffffffffffffffffffffffffffffffffffff1673ffffffffffffffffffffffffffffffffffffffff168152602001908152602001600020600080820160006101000a81549073ffffffffffffffffffffffffffffffffffffffff0219169055600182016000905550508273ffffffffffffffffffffffffffffffffffffffff166108fc829081150290604051600060405180830381858888f19350505050158015611147573d6000803e3d6000fd5b505b50505b50808061115890614356565b915050610fb4565b5060018360040160016101000a81548160ff02191690831515021790555050505050565b61119f83838360405180602001604052806000815250612146565b505050565b606060006111b26007612c52565b905060008060005b8381101561125a573373ffffffffffffffffffffffffffffffffffffffff16600c60006001846111ea9190614287565b815260200190815260200160002060010160009054906101000a900473ffffffffffffffffffffffffffffffffffffffff1673ffffffffffffffffffffffffffffffffffffffff1603611247576001836112449190614287565b92505b808061125290614356565b9150506111ba565b5060008267ffffffffffffffff81111561127757611276613c7b565b5b6040519080825280602002602001820160405280156112b057816020015b61129d613758565b8152602001906001900390816112955790505b50905060005b84811015611454573373ffffffffffffffffffffffffffffffffffffffff16600c60006001846112e69190614287565b815260200190815260200160002060010160009054906101000a900473ffffffffffffffffffffffffffffffffffffffff1673ffffffffffffffffffffffffffffffffffffffff16036114415760006001826113429190614287565b90506000600c600083815260200190815260200160002090506040518060a00160405280826000015481526020018260010160009054906101000a900473ffffffffffffffffffffffffffffffffffffffff1673ffffffffffffffffffffffffffffffffffffffff1681526020018260020160009054906101000a900473ffffffffffffffffffffffffffffffffffffffff1673ffffffffffffffffffffffffffffffffffffffff168152602001826003015481526020018260040160009054906101000a900460ff16151581525084868151811061142457611423614327565b5b602002602001018190525060018561143c9190614287565b945050505b808061144c90614356565b9150506112b6565b508094505050505090565b6000600c60008381526020019081526020016000209050600073ffffffffffffffffffffffffffffffffffffffff1661149783611812565b73ffffffffffffffffffffffffffffffffffffffff16036114ed576040517f08c379a00000000000000000000000000000000000000000000000000000000081526004016114e4906145ae565b60405180910390fd5b60003411611530576040517f08c379a000000000000000000000000000000000000000000000000000000000815260040161152790614640565b60405180910390fd5b806006015481600501546115449190614287565b4210611585576040517f08c379a000000000000000000000000000000000000000000000000000000000815260040161157c906146ac565b60405180910390fd5b806003015434116115cb576040517f08c379a00000000000000000000000000000000000000000000000000000000081526004016115c29061473e565b60405180910390fd5b60008160070160003373ffffffffffffffffffffffffffffffffffffffff1673ffffffffffffffffffffffffffffffffffffffff168152602001908152602001600020905080600101543411611656576040517f08c379a000000000000000000000000000000000000000000000000000000000815260040161164d906147aa565b60405180910390fd5b6000816001015411156116d3578060000160009054906101000a900473ffffffffffffffffffffffffffffffffffffffff1673ffffffffffffffffffffffffffffffffffffffff166108fc82600101549081150290604051600060405180830381858888f193505050501580156116d1573d6000803e3d6000fd5b505b60405180604001604052803373ffffffffffffffffffffffffffffffffffffffff168152602001348152508260070160003373ffffffffffffffffffffffffffffffffffffffff1673ffffffffffffffffffffffffffffffffffffffff16815260200190815260200160002060008201518160000160006101000a81548173ffffffffffffffffffffffffffffffffffffffff021916908373ffffffffffffffffffffffffffffffffffffffff1602179055506020820151816001015590505034826003018190555060008160010154111561180d57600b339080600181540180825580915050600190039060005260206000200160009091909190916101000a81548173ffffffffffffffffffffffffffffffffffffffff021916908373ffffffffffffffffffffffffffffffffffffffff1602179055505b505050565b6000806002600084815260200190815260200160002060009054906101000a900473ffffffffffffffffffffffffffffffffffffffff169050600073ffffffffffffffffffffffffffffffffffffffff168173ffffffffffffffffffffffffffffffffffffffff16036118ba576040517f08c379a00000000000000000000000000000000000000000000000000000000081526004016118b190614816565b60405180910390fd5b80915050919050565b60008073ffffffffffffffffffffffffffffffffffffffff168273ffffffffffffffffffffffffffffffffffffffff1603611933576040517f08c379a000000000000000000000000000000000000000000000000000000000815260040161192a906148a8565b60405180910390fd5b600360008373ffffffffffffffffffffffffffffffffffffffff1673ffffffffffffffffffffffffffffffffffffffff168152602001908152602001600020549050919050565b60006119866007612cf5565b60006119926007612c52565b905061199e3382612d0b565b6119a88185612ee4565b6119b28184612f51565b8091505092915050565b600954341015611a01576040517f08c379a00000000000000000000000000000000000000000000000000000000081526004016119f89061493a565b60405180910390fd5b611a0b6007612cf5565b6000611a176007612c52565b9050611a233382612d0b565b611a2d8185612ee4565b80600c60008381526020019081526020016000206000018190555033600c600083815260200190815260200160002060010160006101000a81548173ffffffffffffffffffffffffffffffffffffffff021916908373ffffffffffffffffffffffffffffffffffffffff16021790555030600c600083815260200190815260200160002060020160006101000a81548173ffffffffffffffffffffffffffffffffffffffff021916908373ffffffffffffffffffffffffffffffffffffffff16021790555082600c6000838152602001908152602001600020600301819055506000600c600083815260200190815260200160002060040160006101000a81548160ff02191690831515021790555042600c60008381526020019081526020016000206005018190555081600c600083815260200190815260200160002060060181905550611b7d3330836129ec565b600a60009054906101000a900473ffffffffffffffffffffffffffffffffffffffff1673ffffffffffffffffffffffffffffffffffffffff166108fc6009549081150290604051600060405180830381858888f19350505050158015611be7573d6000803e3d6000fd5b50807f22d0aa99fd5eae9001365396a46c885b6c037268882ac936443a3692f29e29b83330866000604051611c1f949392919061495a565b60405180910390a250505050565b3373ffffffffffffffffffffffffffffffffffffffff16600c600084815260200190815260200160002060020160009054906101000a900473ffffffffffffffffffffffffffffffffffffffff1673ffffffffffffffffffffffffffffffffffffffff1614611cd1576040517f08c379a0000000000000000000000000000000000000000000000000000000008152600401611cc8906149eb565b60405180910390fd5b6009543414611d15576040517f08c379a0000000000000000000000000000000000000000000000000000000008152600401611d0c90614a7d565b60405180910390fd5b6000600c600084815260200190815260200160002060040160006101000a81548160ff02191690831515021790555080600c60008481526020019081526020016000206003018190555033600c600084815260200190815260200160002060010160006101000a81548173ffffffffffffffffffffffffffffffffffffffff021916908373ffffffffffffffffffffffffffffffffffffffff16021790555030600c600084815260200190815260200160002060020160006101000a81548173ffffffffffffffffffffffffffffffffffffffff021916908373ffffffffffffffffffffffffffffffffffffffff160217905550611e136008613135565b611e1e3330846129ec565b5050565b6000600c6000838152602001908152602001600020600301549050803414611e7f576040517f08c379a0000000000000000000000000000000000000000000000000000000008152600401611e7690614b0f565b60405180910390fd5b33600c600084815260200190815260200160002060020160006101000a81548173ffffffffffffffffffffffffffffffffffffffff021916908373ffffffffffffffffffffffffffffffffffffffff1602179055506001600c600084815260200190815260200160002060040160006101000a81548160ff021916908315150217905550611f0d6008612cf5565b611f183033846129ec565b600a60009054906101000a900473ffffffffffffffffffffffffffffffffffffffff1673ffffffffffffffffffffffffffffffffffffffff166108fc6009549081150290604051600060405180830381858888f19350505050158015611f82573d6000803e3d6000fd5b50600c600083815260200190815260200160002060010160009054906101000a900473ffffffffffffffffffffffffffffffffffffffff1673ffffffffffffffffffffffffffffffffffffffff166108fc349081150290604051600060405180830381858888f19350505050158015611fff573d6000803e3d6000fd5b505050565b60606001805461201390614103565b80601f016020809104026020016040519081016040528092919081815260200182805461203f90614103565b801561208c5780601f106120615761010080835404028352916020019161208c565b820191906000526020600020905b81548152906001019060200180831161206f57829003601f168201915b5050505050905090565b6120a86120a161292b565b8383613191565b5050565b600a60009054906101000a900473ffffffffffffffffffffffffffffffffffffffff1673ffffffffffffffffffffffffffffffffffffffff163373ffffffffffffffffffffffffffffffffffffffff161461213c576040517f08c379a000000000000000000000000000000000000000000000000000000000815260040161213390614ba1565b60405180910390fd5b8060098190555050565b61215761215161292b565b83612c60565b612196576040517f08c379a000000000000000000000000000000000000000000000000000000000815260040161218d906144b0565b60405180910390fd5b6121a2848484846132fd565b50505050565b606060006121b66007612c52565b905060008060005b8381101561225e573373ffffffffffffffffffffffffffffffffffffffff16600c60006001846121ee9190614287565b815260200190815260200160002060020160009054906101000a900473ffffffffffffffffffffffffffffffffffffffff1673ffffffffffffffffffffffffffffffffffffffff160361224b576001836122489190614287565b92505b808061225690614356565b9150506121be565b5060008267ffffffffffffffff81111561227b5761227a613c7b565b5b6040519080825280602002602001820160405280156122b457816020015b6122a1613758565b8152602001906001900390816122995790505b50905060005b84811015612458573373ffffffffffffffffffffffffffffffffffffffff16600c60006001846122ea9190614287565b815260200190815260200160002060020160009054906101000a900473ffffffffffffffffffffffffffffffffffffffff1673ffffffffffffffffffffffffffffffffffffffff16036124455760006001826123469190614287565b90506000600c600083815260200190815260200160002090506040518060a00160405280826000015481526020018260010160009054906101000a900473ffffffffffffffffffffffffffffffffffffffff1673ffffffffffffffffffffffffffffffffffffffff1681526020018260020160009054906101000a900473ffffffffffffffffffffffffffffffffffffffff1673ffffffffffffffffffffffffffffffffffffffff168152602001826003015481526020018260040160009054906101000a900460ff16151581525084868151811061242857612427614327565b5b60200260200101819052506001856124409190614287565b945050505b808061245090614356565b9150506122ba565b508094505050505090565b606061246e826128e0565b600060066000848152602001908152602001600020805461248e90614103565b80601f01602080910402602001604051908101604052809291908181526020018280546124ba90614103565b80156125075780601f106124dc57610100808354040283529160200191612507565b820191906000526020600020905b8154815290600101906020018083116124ea57829003601f168201915b505050505090506000612518613359565b9050600081510361252d578192505050612570565b60008251111561256257808260405160200161254a929190614bfd565b60405160208183030381529060405292505050612570565b61256b84613370565b925050505b919050565b6000600560008473ffffffffffffffffffffffffffffffffffffffff1673ffffffffffffffffffffffffffffffffffffffff16815260200190815260200160002060008373ffffffffffffffffffffffffffffffffffffffff1673ffffffffffffffffffffffffffffffffffffffff16815260200190815260200160002060009054906101000a900460ff16905092915050565b3373ffffffffffffffffffffffffffffffffffffffff1661262984611812565b73ffffffffffffffffffffffffffffffffffffffff161461267f576040517f08c379a000000000000000000000000000000000000000000000000000000000815260040161267690614c93565b60405180910390fd5b60095434146126c3576040517f08c379a00000000000000000000000000000000000000000000000000000000081526004016126ba90614d25565b60405180910390fd5b6000600c600085815260200190815260200160002060000154146127525782600c60008581526020019081526020016000206000018190555033600c600085815260200190815260200160002060010160006101000a81548173ffffffffffffffffffffffffffffffffffffffff021916908373ffffffffffffffffffffffffffffffffffffffff1602179055505b30600c600085815260200190815260200160002060020160006101000a81548173ffffffffffffffffffffffffffffffffffffffff021916908373ffffffffffffffffffffffffffffffffffffffff16021790555081600c6000858152602001908152602001600020600301819055506000600c600085815260200190815260200160002060040160006101000a81548160ff02191690831515021790555042600c60008581526020019081526020016000206005018190555080600c600085815260200190815260200160002060060181905550612832333085610dca565b827f22d0aa99fd5eae9001365396a46c885b6c037268882ac936443a3692f29e29b83330856000604051612869949392919061495a565b60405180910390a2505050565b60007f01ffc9a7000000000000000000000000000000000000000000000000000000007bffffffffffffffffffffffffffffffffffffffffffffffffffffffff1916827bffffffffffffffffffffffffffffffffffffffffffffffffffffffff1916149050919050565b6128e9816133d8565b612928576040517f08c379a000000000000000000000000000000000000000000000000000000000815260040161291f90614816565b60405180910390fd5b50565b600033905090565b816004600083815260200190815260200160002060006101000a81548173ffffffffffffffffffffffffffffffffffffffff021916908373ffffffffffffffffffffffffffffffffffffffff160217905550808273ffffffffffffffffffffffffffffffffffffffff166129a683611812565b73ffffffffffffffffffffffffffffffffffffffff167f8c5be1e5ebec7d5bd14f71427d1e84f3dd0314c0f7b2291e5b200ac8c7c3b92560405160405180910390a45050565b8273ffffffffffffffffffffffffffffffffffffffff16612a0c82611812565b73ffffffffffffffffffffffffffffffffffffffff1614612a62576040517f08c379a0000000000000000000000000000000000000000000000000000000008152600401612a5990614db7565b60405180910390fd5b600073ffffffffffffffffffffffffffffffffffffffff168273ffffffffffffffffffffffffffffffffffffffff1603612ad1576040517f08c379a0000000000000000000000000000000000000000000000000000000008152600401612ac890614e49565b60405180910390fd5b612adc838383613444565b612ae7600082612933565b6001600360008573ffffffffffffffffffffffffffffffffffffffff1673ffffffffffffffffffffffffffffffffffffffff1681526020019081526020016000206000828254612b37919061440a565b925050819055506001600360008473ffffffffffffffffffffffffffffffffffffffff1673ffffffffffffffffffffffffffffffffffffffff1681526020019081526020016000206000828254612b8e9190614287565b92505081905550816002600083815260200190815260200160002060006101000a81548173ffffffffffffffffffffffffffffffffffffffff021916908373ffffffffffffffffffffffffffffffffffffffff160217905550808273ffffffffffffffffffffffffffffffffffffffff168473ffffffffffffffffffffffffffffffffffffffff167fddf252ad1be2c89b69c2b068fc378daa952ba7f163c4a11628f55a4df523b3ef60405160405180910390a4612c4d838383613449565b505050565b600081600001549050919050565b600080612c6c83611812565b90508073ffffffffffffffffffffffffffffffffffffffff168473ffffffffffffffffffffffffffffffffffffffff161480612cae5750612cad8185612575565b5b80612cec57508373ffffffffffffffffffffffffffffffffffffffff16612cd484610761565b73ffffffffffffffffffffffffffffffffffffffff16145b91505092915050565b6001816000016000828254019250508190555050565b600073ffffffffffffffffffffffffffffffffffffffff168273ffffffffffffffffffffffffffffffffffffffff1603612d7a576040517f08c379a0000000000000000000000000000000000000000000000000000000008152600401612d7190614eb5565b60405180910390fd5b612d83816133d8565b15612dc3576040517f08c379a0000000000000000000000000000000000000000000000000000000008152600401612dba90614f21565b60405180910390fd5b612dcf60008383613444565b6001600360008473ffffffffffffffffffffffffffffffffffffffff1673ffffffffffffffffffffffffffffffffffffffff1681526020019081526020016000206000828254612e1f9190614287565b92505081905550816002600083815260200190815260200160002060006101000a81548173ffffffffffffffffffffffffffffffffffffffff021916908373ffffffffffffffffffffffffffffffffffffffff160217905550808273ffffffffffffffffffffffffffffffffffffffff16600073ffffffffffffffffffffffffffffffffffffffff167fddf252ad1be2c89b69c2b068fc378daa952ba7f163c4a11628f55a4df523b3ef60405160405180910390a4612ee060008383613449565b5050565b612eed826133d8565b612f2c576040517f08c379a0000000000000000000000000000000000000000000000000000000008152600401612f2390614fb3565b60405180910390fd5b80600660008481526020019081526020016000209081612f4c919061517f565b505050565b60008111612f94576040517f08c379a0000000000000000000000000000000000000000000000000000000008152600401612f8b9061529d565b60405180910390fd5b6009543414612fd8576040517f08c379a0000000000000000000000000000000000000000000000000000000008152600401612fcf90614d25565b60405180910390fd5b81600c60008481526020019081526020016000206000018190555033600c600084815260200190815260200160002060010160006101000a81548173ffffffffffffffffffffffffffffffffffffffff021916908373ffffffffffffffffffffffffffffffffffffffff16021790555030600c600084815260200190815260200160002060020160006101000a81548173ffffffffffffffffffffffffffffffffffffffff021916908373ffffffffffffffffffffffffffffffffffffffff16021790555080600c6000848152602001908152602001600020600301819055506000600c600084815260200190815260200160002060040160006101000a81548160ff0219169083151502179055506130f23330846129ec565b817f22d0aa99fd5eae9001365396a46c885b6c037268882ac936443a3692f29e29b83330846000604051613129949392919061495a565b60405180910390a25050565b60008160000154905060008111613181576040517f08c379a000000000000000000000000000000000000000000000000000000000815260040161317890615309565b60405180910390fd5b6001810382600001819055505050565b8173ffffffffffffffffffffffffffffffffffffffff168373ffffffffffffffffffffffffffffffffffffffff16036131ff576040517f08c379a00000000000000000000000000000000000000000000000000000000081526004016131f690615375565b60405180910390fd5b80600560008573ffffffffffffffffffffffffffffffffffffffff1673ffffffffffffffffffffffffffffffffffffffff16815260200190815260200160002060008473ffffffffffffffffffffffffffffffffffffffff1673ffffffffffffffffffffffffffffffffffffffff16815260200190815260200160002060006101000a81548160ff0219169083151502179055508173ffffffffffffffffffffffffffffffffffffffff168373ffffffffffffffffffffffffffffffffffffffff167f17307eab39ab6107e8899845ad3d59bd9653f200f220920489ca2b5937696c31836040516132f09190613869565b60405180910390a3505050565b6133088484846129ec565b6133148484848461344e565b613353576040517f08c379a000000000000000000000000000000000000000000000000000000000815260040161334a90615407565b60405180910390fd5b50505050565b606060405180602001604052806000815250905090565b606061337b826128e0565b6000613385613359565b905060008151116133a557604051806020016040528060008152506133d0565b806133af846135d5565b6040516020016133c0929190614bfd565b6040516020818303038152906040525b915050919050565b60008073ffffffffffffffffffffffffffffffffffffffff166002600084815260200190815260200160002060009054906101000a900473ffffffffffffffffffffffffffffffffffffffff1673ffffffffffffffffffffffffffffffffffffffff1614159050919050565b505050565b505050565b600061346f8473ffffffffffffffffffffffffffffffffffffffff16613735565b156135c8578373ffffffffffffffffffffffffffffffffffffffff1663150b7a0261349861292b565b8786866040518563ffffffff1660e01b81526004016134ba949392919061547c565b6020604051808303816000875af19250505080156134f657506040513d601f19601f820116820180604052508101906134f391906154dd565b60015b613578573d8060008114613526576040519150601f19603f3d011682016040523d82523d6000602084013e61352b565b606091505b506000815103613570576040517f08c379a000000000000000000000000000000000000000000000000000000000815260040161356790615407565b60405180910390fd5b805181602001fd5b63150b7a0260e01b7bffffffffffffffffffffffffffffffffffffffffffffffffffffffff1916817bffffffffffffffffffffffffffffffffffffffffffffffffffffffff1916149150506135cd565b600190505b949350505050565b60606000820361361c576040518060400160405280600181526020017f30000000000000000000000000000000000000000000000000000000000000008152509050613730565b600082905060005b6000821461364e57808061363790614356565b915050600a826136479190615539565b9150613624565b60008167ffffffffffffffff81111561366a57613669613c7b565b5b6040519080825280601f01601f19166020018201604052801561369c5781602001600182028036833780820191505090505b5090505b60008514613729576001826136b5919061440a565b9150600a856136c4919061556a565b60306136d09190614287565b60f81b8183815181106136e6576136e5614327565b5b60200101907effffffffffffffffffffffffffffffffffffffffffffffffffffffffffffff1916908160001a905350600a856137229190615539565b94506136a0565b8093505050505b919050565b6000808273ffffffffffffffffffffffffffffffffffffffff163b119050919050565b6040518060a0016040528060008152602001600073ffffffffffffffffffffffffffffffffffffffff168152602001600073ffffffffffffffffffffffffffffffffffffffff168152602001600081526020016000151581525090565b6000604051905090565b600080fd5b600080fd5b60007fffffffff0000000000000000000000000000000000000000000000000000000082169050919050565b6137fe816137c9565b811461380957600080fd5b50565b60008135905061381b816137f5565b92915050565b600060208284031215613837576138366137bf565b5b60006138458482850161380c565b91505092915050565b60008115159050919050565b6138638161384e565b82525050565b600060208201905061387e600083018461385a565b92915050565b600081519050919050565b600082825260208201905092915050565b60005b838110156138be5780820151818401526020810190506138a3565b60008484015250505050565b6000601f19601f8301169050919050565b60006138e682613884565b6138f0818561388f565b93506139008185602086016138a0565b613909816138ca565b840191505092915050565b6000602082019050818103600083015261392e81846138db565b905092915050565b6000819050919050565b61394981613936565b811461395457600080fd5b50565b60008135905061396681613940565b92915050565b600060208284031215613982576139816137bf565b5b600061399084828501613957565b91505092915050565b600073ffffffffffffffffffffffffffffffffffffffff82169050919050565b60006139c482613999565b9050919050565b6139d4816139b9565b82525050565b60006020820190506139ef60008301846139cb565b92915050565b6139fe816139b9565b8114613a0957600080fd5b50565b600081359050613a1b816139f5565b92915050565b60008060408385031215613a3857613a376137bf565b5b6000613a4685828601613a0c565b9250506020613a5785828601613957565b9150509250929050565b613a6a81613936565b82525050565b6000602082019050613a856000830184613a61565b92915050565b600081519050919050565b600082825260208201905092915050565b6000819050602082019050919050565b613ac081613936565b82525050565b613acf816139b9565b82525050565b613ade8161384e565b82525050565b60a082016000820151613afa6000850182613ab7565b506020820151613b0d6020850182613ac6565b506040820151613b206040850182613ac6565b506060820151613b336060850182613ab7565b506080820151613b466080850182613ad5565b50505050565b6000613b588383613ae4565b60a08301905092915050565b6000602082019050919050565b6000613b7c82613a8b565b613b868185613a96565b9350613b9183613aa7565b8060005b83811015613bc2578151613ba98882613b4c565b9750613bb483613b64565b925050600181019050613b95565b5085935050505092915050565b60006020820190508181036000830152613be98184613b71565b905092915050565b600080600060608486031215613c0a57613c096137bf565b5b6000613c1886828701613a0c565b9350506020613c2986828701613a0c565b9250506040613c3a86828701613957565b9150509250925092565b600060208284031215613c5a57613c596137bf565b5b6000613c6884828501613a0c565b91505092915050565b600080fd5b600080fd5b7f4e487b7100000000000000000000000000000000000000000000000000000000600052604160045260246000fd5b613cb3826138ca565b810181811067ffffffffffffffff82111715613cd257613cd1613c7b565b5b80604052505050565b6000613ce56137b5565b9050613cf18282613caa565b919050565b600067ffffffffffffffff821115613d1157613d10613c7b565b5b613d1a826138ca565b9050602081019050919050565b82818337600083830152505050565b6000613d49613d4484613cf6565b613cdb565b905082815260208101848484011115613d6557613d64613c76565b5b613d70848285613d27565b509392505050565b600082601f830112613d8d57613d8c613c71565b5b8135613d9d848260208601613d36565b91505092915050565b60008060408385031215613dbd57613dbc6137bf565b5b600083013567ffffffffffffffff811115613ddb57613dda6137c4565b5b613de785828601613d78565b9250506020613df885828601613957565b9150509250929050565b600080600060608486031215613e1b57613e1a6137bf565b5b600084013567ffffffffffffffff811115613e3957613e386137c4565b5b613e4586828701613d78565b9350506020613e5686828701613957565b9250506040613e6786828701613957565b9150509250925092565b60008060408385031215613e8857613e876137bf565b5b6000613e9685828601613957565b9250506020613ea785828601613957565b9150509250929050565b613eba8161384e565b8114613ec557600080fd5b50565b600081359050613ed781613eb1565b92915050565b60008060408385031215613ef457613ef36137bf565b5b6000613f0285828601613a0c565b9250506020613f1385828601613ec8565b9150509250929050565b600067ffffffffffffffff821115613f3857613f37613c7b565b5b613f41826138ca565b9050602081019050919050565b6000613f61613f5c84613f1d565b613cdb565b905082815260208101848484011115613f7d57613f7c613c76565b5b613f88848285613d27565b509392505050565b600082601f830112613fa557613fa4613c71565b5b8135613fb5848260208601613f4e565b91505092915050565b60008060008060808587031215613fd857613fd76137bf565b5b6000613fe687828801613a0c565b9450506020613ff787828801613a0c565b935050604061400887828801613957565b925050606085013567ffffffffffffffff811115614029576140286137c4565b5b61403587828801613f90565b91505092959194509250565b60008060408385031215614058576140576137bf565b5b600061406685828601613a0c565b925050602061407785828601613a0c565b9150509250929050565b60008060006060848603121561409a576140996137bf565b5b60006140a886828701613957565b93505060206140b986828701613957565b92505060406140ca86828701613957565b9150509250925092565b7f4e487b7100000000000000000000000000000000000000000000000000000000600052602260045260246000fd5b6000600282049050600182168061411b57607f821691505b60208210810361412e5761412d6140d4565b5b50919050565b7f4552433732313a20617070726f76616c20746f2063757272656e74206f776e6560008201527f7200000000000000000000000000000000000000000000000000000000000000602082015250565b600061419060218361388f565b915061419b82614134565b604082019050919050565b600060208201905081810360008301526141bf81614183565b9050919050565b7f4552433732313a20617070726f76652063616c6c6572206973206e6f7420746f60008201527f6b656e206f776e6572206e6f7220617070726f76656420666f7220616c6c0000602082015250565b6000614222603e8361388f565b915061422d826141c6565b604082019050919050565b6000602082019050818103600083015261425181614215565b9050919050565b7f4e487b7100000000000000000000000000000000000000000000000000000000600052601160045260246000fd5b600061429282613936565b915061429d83613936565b92508282019050808211156142b5576142b4614258565b5b92915050565b7f42696464696e6720706572696f6420686173206e6f7420656e64656400000000600082015250565b60006142f1601c8361388f565b91506142fc826142bb565b602082019050919050565b60006020820190508181036000830152614320816142e4565b9050919050565b7f4e487b7100000000000000000000000000000000000000000000000000000000600052603260045260246000fd5b600061436182613936565b91507fffffffffffffffffffffffffffffffffffffffffffffffffffffffffffffffff820361439357614392614258565b5b600182019050919050565b7f4e6f2062696473207765726520706c6163656400000000000000000000000000600082015250565b60006143d460138361388f565b91506143df8261439e565b602082019050919050565b60006020820190508181036000830152614403816143c7565b9050919050565b600061441582613936565b915061442083613936565b925082820390508181111561443857614437614258565b5b92915050565b7f4552433732313a2063616c6c6572206973206e6f7420746f6b656e206f776e6560008201527f72206e6f7220617070726f766564000000000000000000000000000000000000602082015250565b600061449a602e8361388f565b91506144a58261443e565b604082019050919050565b600060208201905081810360008301526144c98161448d565b9050919050565b7f526566756e6473206861766520616c7265616479206265656e2070726f63657360008201527f7365640000000000000000000000000000000000000000000000000000000000602082015250565b600061452c60238361388f565b9150614537826144d0565b604082019050919050565b6000602082019050818103600083015261455b8161451f565b9050919050565b7f546f6b656e20646f6573206e6f74206578697374000000000000000000000000600082015250565b600061459860148361388f565b91506145a382614562565b602082019050919050565b600060208201905081810360008301526145c78161458b565b9050919050565b7f42696420616d6f756e74206d7573742062652067726561746572207468616e2060008201527f3000000000000000000000000000000000000000000000000000000000000000602082015250565b600061462a60218361388f565b9150614635826145ce565b604082019050919050565b600060208201905081810360008301526146598161461d565b9050919050565b7f42696464696e6720706572696f642068617320656e6465640000000000000000600082015250565b600061469660188361388f565b91506146a182614660565b602082019050919050565b600060208201905081810360008301526146c581614689565b9050919050565b7f426964206d75737420626520686967686572207468616e2063757272656e742060008201527f7072696365000000000000000000000000000000000000000000000000000000602082015250565b600061472860258361388f565b9150614733826146cc565b604082019050919050565b600060208201905081810360008301526147578161471b565b9050919050565b7f546865726520697320616c726561647920612068696768657220626964000000600082015250565b6000614794601d8361388f565b915061479f8261475e565b602082019050919050565b600060208201905081810360008301526147c381614787565b9050919050565b7f4552433732313a20696e76616c696420746f6b656e2049440000000000000000600082015250565b600061480060188361388f565b915061480b826147ca565b602082019050919050565b6000602082019050818103600083015261482f816147f3565b9050919050565b7f4552433732313a2061646472657373207a65726f206973206e6f74206120766160008201527f6c6964206f776e65720000000000000000000000000000000000000000000000602082015250565b600061489260298361388f565b915061489d82614836565b604082019050919050565b600060208201905081810360008301526148c181614885565b9050919050565b7f496e73756666696369656e742066756e647320746f20636f766572206c69737460008201527f696e672070726963650000000000000000000000000000000000000000000000602082015250565b600061492460298361388f565b915061492f826148c8565b604082019050919050565b6000602082019050818103600083015261495381614917565b9050919050565b600060808201905061496f60008301876139cb565b61497c60208301866139cb565b6149896040830185613a61565b614996606083018461385a565b95945050505050565b7f4f6e6c79204974656d204f776e657220616c6c6f770000000000000000000000600082015250565b60006149d560158361388f565b91506149e08261499f565b602082019050919050565b60006020820190508181036000830152614a04816149c8565b9050919050565b7f5072696365206d75737420626520657175616c20746f204c697374507269636560008201527f2100000000000000000000000000000000000000000000000000000000000000602082015250565b6000614a6760218361388f565b9150614a7282614a0b565b604082019050919050565b60006020820190508181036000830152614a9681614a5a565b9050919050565b7f706c656173652073756d626974207468652061736b696e67205072696365206960008201527f6e204f7264657220746f20507572636865732100000000000000000000000000602082015250565b6000614af960338361388f565b9150614b0482614a9d565b604082019050919050565b60006020820190508181036000830152614b2881614aec565b9050919050565b7f6f6e6c79206f776e6572206f6620746865204d61726b6974706c61636520616c60008201527f6c6f7765642043616c6c20746869732066756e6374696f6e2100000000000000602082015250565b6000614b8b60398361388f565b9150614b9682614b2f565b604082019050919050565b60006020820190508181036000830152614bba81614b7e565b9050919050565b600081905092915050565b6000614bd782613884565b614be18185614bc1565b9350614bf18185602086016138a0565b80840191505092915050565b6000614c098285614bcc565b9150614c158284614bcc565b91508190509392505050565b7f596f7520617265206e6f7420746865206f776e6572206f662074686973204e4660008201527f5400000000000000000000000000000000000000000000000000000000000000602082015250565b6000614c7d60218361388f565b9150614c8882614c21565b604082019050919050565b60006020820190508181036000830152614cac81614c70565b9050919050565b7f5072696365206d75737420626520657175616c20746f206c697374696e67207060008201527f7269636500000000000000000000000000000000000000000000000000000000602082015250565b6000614d0f60248361388f565b9150614d1a82614cb3565b604082019050919050565b60006020820190508181036000830152614d3e81614d02565b9050919050565b7f4552433732313a207472616e736665722066726f6d20696e636f72726563742060008201527f6f776e6572000000000000000000000000000000000000000000000000000000602082015250565b6000614da160258361388f565b9150614dac82614d45565b604082019050919050565b60006020820190508181036000830152614dd081614d94565b9050919050565b7f4552433732313a207472616e7366657220746f20746865207a65726f2061646460008201527f7265737300000000000000000000000000000000000000000000000000000000602082015250565b6000614e3360248361388f565b9150614e3e82614dd7565b604082019050919050565b60006020820190508181036000830152614e6281614e26565b9050919050565b7f4552433732313a206d696e7420746f20746865207a65726f2061646472657373600082015250565b6000614e9f60208361388f565b9150614eaa82614e69565b602082019050919050565b60006020820190508181036000830152614ece81614e92565b9050919050565b7f4552433732313a20746f6b656e20616c7265616479206d696e74656400000000600082015250565b6000614f0b601c8361388f565b9150614f1682614ed5565b602082019050919050565b60006020820190508181036000830152614f3a81614efe565b9050919050565b7f45524337323155524953746f726167653a2055524920736574206f66206e6f6e60008201527f6578697374656e7420746f6b656e000000000000000000000000000000000000602082015250565b6000614f9d602e8361388f565b9150614fa882614f41565b604082019050919050565b60006020820190508181036000830152614fcc81614f90565b9050919050565b60008190508160005260206000209050919050565b60006020601f8301049050919050565b600082821b905092915050565b6000600883026150357fffffffffffffffffffffffffffffffffffffffffffffffffffffffffffffffff82614ff8565b61503f8683614ff8565b95508019841693508086168417925050509392505050565b6000819050919050565b600061507c61507761507284613936565b615057565b613936565b9050919050565b6000819050919050565b61509683615061565b6150aa6150a282615083565b848454615005565b825550505050565b600090565b6150bf6150b2565b6150ca81848461508d565b505050565b5b818110156150ee576150e36000826150b7565b6001810190506150d0565b5050565b601f8211156151335761510481614fd3565b61510d84614fe8565b8101602085101561511c578190505b61513061512885614fe8565b8301826150cf565b50505b505050565b600082821c905092915050565b600061515660001984600802615138565b1980831691505092915050565b600061516f8383615145565b9150826002028217905092915050565b61518882613884565b67ffffffffffffffff8111156151a1576151a0613c7b565b5b6151ab8254614103565b6151b68282856150f2565b600060209050601f8311600181146151e957600084156151d7578287015190505b6151e18582615163565b865550615249565b601f1984166151f786614fd3565b60005b8281101561521f578489015182556001820191506020850194506020810190506151fa565b8683101561523c5784890151615238601f891682615145565b8355505b6001600288020188555050505b505050505050565b7f5072696365206d7573742062652067726561746572207468616e203000000000600082015250565b6000615287601c8361388f565b915061529282615251565b602082019050919050565b600060208201905081810360008301526152b68161527a565b9050919050565b7f436f756e7465723a2064656372656d656e74206f766572666c6f770000000000600082015250565b60006152f3601b8361388f565b91506152fe826152bd565b602082019050919050565b60006020820190508181036000830152615322816152e6565b9050919050565b7f4552433732313a20617070726f766520746f2063616c6c657200000000000000600082015250565b600061535f60198361388f565b915061536a82615329565b602082019050919050565b6000602082019050818103600083015261538e81615352565b9050919050565b7f4552433732313a207472616e7366657220746f206e6f6e20455243373231526560008201527f63656976657220696d706c656d656e7465720000000000000000000000000000602082015250565b60006153f160328361388f565b91506153fc82615395565b604082019050919050565b60006020820190508181036000830152615420816153e4565b9050919050565b600081519050919050565b600082825260208201905092915050565b600061544e82615427565b6154588185615432565b93506154688185602086016138a0565b615471816138ca565b840191505092915050565b600060808201905061549160008301876139cb565b61549e60208301866139cb565b6154ab6040830185613a61565b81810360608301526154bd8184615443565b905095945050505050565b6000815190506154d7816137f5565b92915050565b6000602082840312156154f3576154f26137bf565b5b6000615501848285016154c8565b91505092915050565b7f4e487b7100000000000000000000000000000000000000000000000000000000600052601260045260246000fd5b600061554482613936565b915061554f83613936565b92508261555f5761555e61550a565b5b828204905092915050565b600061557582613936565b915061558083613936565b9250826155905761558f61550a565b5b82820690509291505056fea264697066735822122057c32d3a245d37dfc0259fcc381f59e661cf856720813d59c51f7d28479dcd9e64736f6c63430008140033",
  "linkReferences": {},
  "deployedLinkReferences": {}
}